{
  "_format": "hh-sol-artifact-1",
  "contractName": "WarrantyManagement",
  "sourceName": "contracts/WarrantyManagement.sol",
  "abi": [
    {
      "inputs": [],
      "stateMutability": "nonpayable",
      "type": "constructor"
    },
    {
      "anonymous": false,
      "inputs": [
        {
          "indexed": true,
          "internalType": "address",
          "name": "owner",
          "type": "address"
        },
        {
          "indexed": true,
          "internalType": "address",
          "name": "approved",
          "type": "address"
        },
        {
          "indexed": true,
          "internalType": "uint256",
          "name": "tokenId",
          "type": "uint256"
        }
      ],
      "name": "Approval",
      "type": "event"
    },
    {
      "anonymous": false,
      "inputs": [
        {
          "indexed": true,
          "internalType": "address",
          "name": "owner",
          "type": "address"
        },
        {
          "indexed": true,
          "internalType": "address",
          "name": "operator",
          "type": "address"
        },
        {
          "indexed": false,
          "internalType": "bool",
          "name": "approved",
          "type": "bool"
        }
      ],
      "name": "ApprovalForAll",
      "type": "event"
    },
    {
      "anonymous": false,
      "inputs": [
        {
          "indexed": false,
          "internalType": "bytes32",
          "name": "id",
          "type": "bytes32"
        },
        {
          "indexed": false,
          "internalType": "address",
          "name": "buyerWallet",
          "type": "address"
        },
        {
          "indexed": false,
          "internalType": "string",
          "name": "email_id",
          "type": "string"
        },
        {
          "indexed": false,
          "internalType": "string",
          "name": "contact_number",
          "type": "string"
        },
        {
          "indexed": false,
          "internalType": "uint256",
          "name": "creation_time",
          "type": "uint256"
        }
      ],
      "name": "BuyerRegistered",
      "type": "event"
    },
    {
      "anonymous": false,
      "inputs": [
        {
          "indexed": false,
          "internalType": "bytes32",
          "name": "id",
          "type": "bytes32"
        },
        {
          "indexed": false,
          "internalType": "bytes32",
          "name": "publisher",
          "type": "bytes32"
        },
        {
          "indexed": false,
          "internalType": "uint256",
          "name": "timestamp",
          "type": "uint256"
        },
        {
          "indexed": false,
          "internalType": "string",
          "name": "uri",
          "type": "string"
        }
      ],
      "name": "ResearchDocumentCreated",
      "type": "event"
    },
    {
      "anonymous": false,
      "inputs": [
        {
          "indexed": true,
          "internalType": "bytes32",
          "name": "role",
          "type": "bytes32"
        },
        {
          "indexed": true,
          "internalType": "bytes32",
          "name": "previousAdminRole",
          "type": "bytes32"
        },
        {
          "indexed": true,
          "internalType": "bytes32",
          "name": "newAdminRole",
          "type": "bytes32"
        }
      ],
      "name": "RoleAdminChanged",
      "type": "event"
    },
    {
      "anonymous": false,
      "inputs": [
        {
          "indexed": true,
          "internalType": "bytes32",
          "name": "role",
          "type": "bytes32"
        },
        {
          "indexed": true,
          "internalType": "address",
          "name": "account",
          "type": "address"
        },
        {
          "indexed": true,
          "internalType": "address",
          "name": "sender",
          "type": "address"
        }
      ],
      "name": "RoleGranted",
      "type": "event"
    },
    {
      "anonymous": false,
      "inputs": [
        {
          "indexed": true,
          "internalType": "bytes32",
          "name": "role",
          "type": "bytes32"
        },
        {
          "indexed": true,
          "internalType": "address",
          "name": "account",
          "type": "address"
        },
        {
          "indexed": true,
          "internalType": "address",
          "name": "sender",
          "type": "address"
        }
      ],
      "name": "RoleRevoked",
      "type": "event"
    },
    {
      "anonymous": false,
      "inputs": [
        {
          "indexed": true,
          "internalType": "address",
          "name": "from",
          "type": "address"
        },
        {
          "indexed": true,
          "internalType": "address",
          "name": "to",
          "type": "address"
        },
        {
          "indexed": true,
          "internalType": "uint256",
          "name": "tokenId",
          "type": "uint256"
        }
      ],
      "name": "Transfer",
      "type": "event"
    },
    {
      "anonymous": false,
      "inputs": [
        {
          "indexed": false,
          "internalType": "bytes32",
          "name": "id",
          "type": "bytes32"
        },
        {
          "indexed": false,
          "internalType": "address",
          "name": "serielNumber",
          "type": "address"
        },
        {
          "indexed": false,
          "internalType": "string",
          "name": "metdata",
          "type": "string"
        },
        {
          "indexed": false,
          "internalType": "uint256",
          "name": "creation_time",
          "type": "uint256"
        }
      ],
      "name": "WarrantyCardRegistered",
      "type": "event"
    },
    {
      "inputs": [],
      "name": "DEFAULT_ADMIN_ROLE",
      "outputs": [
        {
          "internalType": "bytes32",
          "name": "",
          "type": "bytes32"
        }
      ],
      "stateMutability": "view",
      "type": "function"
    },
    {
      "inputs": [
        {
          "internalType": "address",
          "name": "to",
          "type": "address"
        },
        {
          "internalType": "uint256",
          "name": "tokenId",
          "type": "uint256"
        }
      ],
      "name": "approve",
      "outputs": [],
      "stateMutability": "nonpayable",
      "type": "function"
    },
    {
      "inputs": [
        {
          "internalType": "address",
          "name": "owner",
          "type": "address"
        }
      ],
      "name": "balanceOf",
      "outputs": [
        {
          "internalType": "uint256",
          "name": "",
          "type": "uint256"
        }
      ],
      "stateMutability": "view",
      "type": "function"
    },
    {
      "inputs": [
        {
          "internalType": "bytes32",
          "name": "buyerId",
          "type": "bytes32"
        },
        {
          "internalType": "bytes32",
          "name": "warrantyCardId",
          "type": "bytes32"
        }
      ],
      "name": "claimWarranty",
      "outputs": [],
      "stateMutability": "nonpayable",
      "type": "function"
    },
    {
      "inputs": [
        {
          "internalType": "uint256",
          "name": "warrantyCardNumber",
          "type": "uint256"
        },
        {
          "internalType": "bytes32",
          "name": "buyerId",
          "type": "bytes32"
        }
      ],
      "name": "destroyWarrantyCard",
      "outputs": [],
      "stateMutability": "nonpayable",
      "type": "function"
    },
    {
      "inputs": [
        {
          "internalType": "uint256",
          "name": "tokenId",
          "type": "uint256"
        }
      ],
      "name": "getApproved",
      "outputs": [
        {
          "internalType": "address",
          "name": "",
          "type": "address"
        }
      ],
      "stateMutability": "view",
      "type": "function"
    },
    {
      "inputs": [
        {
          "internalType": "bytes32",
          "name": "role",
          "type": "bytes32"
        }
      ],
      "name": "getRoleAdmin",
      "outputs": [
        {
          "internalType": "bytes32",
          "name": "",
          "type": "bytes32"
        }
      ],
      "stateMutability": "view",
      "type": "function"
    },
    {
      "inputs": [
        {
          "internalType": "bytes32",
          "name": "role",
          "type": "bytes32"
        },
        {
          "internalType": "address",
          "name": "account",
          "type": "address"
        }
      ],
      "name": "grantRole",
      "outputs": [],
      "stateMutability": "nonpayable",
      "type": "function"
    },
    {
      "inputs": [
        {
          "internalType": "bytes32",
          "name": "role",
          "type": "bytes32"
        },
        {
          "internalType": "address",
          "name": "account",
          "type": "address"
        }
      ],
      "name": "hasRole",
      "outputs": [
        {
          "internalType": "bool",
          "name": "",
          "type": "bool"
        }
      ],
      "stateMutability": "view",
      "type": "function"
    },
    {
      "inputs": [
        {
          "internalType": "address",
          "name": "owner",
          "type": "address"
        },
        {
          "internalType": "address",
          "name": "operator",
          "type": "address"
        }
      ],
      "name": "isApprovedForAll",
      "outputs": [
        {
          "internalType": "bool",
          "name": "",
          "type": "bool"
        }
      ],
      "stateMutability": "view",
      "type": "function"
    },
    {
      "inputs": [
        {
          "internalType": "bytes32",
          "name": "warrantyCardId",
          "type": "bytes32"
        }
      ],
      "name": "isOwner",
      "outputs": [
        {
          "internalType": "bool",
          "name": "",
          "type": "bool"
        }
      ],
      "stateMutability": "view",
      "type": "function"
    },
    {
      "inputs": [],
      "name": "name",
      "outputs": [
        {
          "internalType": "string",
          "name": "",
          "type": "string"
        }
      ],
      "stateMutability": "view",
      "type": "function"
    },
    {
      "inputs": [
        {
          "internalType": "uint256",
          "name": "tokenId",
          "type": "uint256"
        }
      ],
      "name": "ownerOf",
      "outputs": [
        {
          "internalType": "address",
          "name": "",
          "type": "address"
        }
      ],
      "stateMutability": "view",
      "type": "function"
    },
    {
      "inputs": [
        {
          "internalType": "bytes32",
          "name": "id",
          "type": "bytes32"
        },
        {
          "internalType": "string",
          "name": "email",
          "type": "string"
        },
        {
          "internalType": "string",
          "name": "buyer_address",
          "type": "string"
        }
      ],
      "name": "registerBuyer",
      "outputs": [
        {
          "internalType": "bool",
          "name": "",
          "type": "bool"
        }
      ],
      "stateMutability": "nonpayable",
      "type": "function"
    },
    {
      "inputs": [
        {
          "internalType": "bytes32",
          "name": "buyerId",
          "type": "bytes32"
        },
        {
          "internalType": "uint256",
          "name": "tokenId",
          "type": "uint256"
        },
        {
          "internalType": "string",
          "name": "serielNumber",
          "type": "string"
        },
        {
          "internalType": "uint256",
          "name": "validity",
          "type": "uint256"
        },
        {
          "internalType": "string",
          "name": "metadata",
          "type": "string"
        }
      ],
      "name": "registerWarrantyCard",
      "outputs": [
        {
          "internalType": "bool",
          "name": "",
          "type": "bool"
        }
      ],
      "stateMutability": "nonpayable",
      "type": "function"
    },
    {
      "inputs": [
        {
          "internalType": "bytes32",
          "name": "role",
          "type": "bytes32"
        },
        {
          "internalType": "address",
          "name": "account",
          "type": "address"
        }
      ],
      "name": "renounceRole",
      "outputs": [],
      "stateMutability": "nonpayable",
      "type": "function"
    },
    {
      "inputs": [
        {
          "internalType": "bytes32",
          "name": "role",
          "type": "bytes32"
        },
        {
          "internalType": "address",
          "name": "account",
          "type": "address"
        }
      ],
      "name": "revokeRole",
      "outputs": [],
      "stateMutability": "nonpayable",
      "type": "function"
    },
    {
      "inputs": [
        {
          "internalType": "address",
          "name": "from",
          "type": "address"
        },
        {
          "internalType": "address",
          "name": "to",
          "type": "address"
        },
        {
          "internalType": "uint256",
          "name": "tokenId",
          "type": "uint256"
        }
      ],
      "name": "safeTransferFrom",
      "outputs": [],
      "stateMutability": "nonpayable",
      "type": "function"
    },
    {
      "inputs": [
        {
          "internalType": "address",
          "name": "from",
          "type": "address"
        },
        {
          "internalType": "address",
          "name": "to",
          "type": "address"
        },
        {
          "internalType": "uint256",
          "name": "tokenId",
          "type": "uint256"
        },
        {
          "internalType": "bytes",
          "name": "_data",
          "type": "bytes"
        }
      ],
      "name": "safeTransferFrom",
      "outputs": [],
      "stateMutability": "nonpayable",
      "type": "function"
    },
    {
      "inputs": [
        {
          "internalType": "address",
          "name": "operator",
          "type": "address"
        },
        {
          "internalType": "bool",
          "name": "approved",
          "type": "bool"
        }
      ],
      "name": "setApprovalForAll",
      "outputs": [],
      "stateMutability": "nonpayable",
      "type": "function"
    },
    {
      "inputs": [
        {
          "internalType": "bytes4",
          "name": "interfaceId",
          "type": "bytes4"
        }
      ],
      "name": "supportsInterface",
      "outputs": [
        {
          "internalType": "bool",
          "name": "",
          "type": "bool"
        }
      ],
      "stateMutability": "view",
      "type": "function"
    },
    {
      "inputs": [],
      "name": "symbol",
      "outputs": [
        {
          "internalType": "string",
          "name": "",
          "type": "string"
        }
      ],
      "stateMutability": "view",
      "type": "function"
    },
    {
      "inputs": [
        {
          "internalType": "uint256",
          "name": "tokenId",
          "type": "uint256"
        }
      ],
      "name": "tokenURI",
      "outputs": [
        {
          "internalType": "string",
          "name": "",
          "type": "string"
        }
      ],
      "stateMutability": "view",
      "type": "function"
    },
    {
      "inputs": [
        {
          "internalType": "address",
          "name": "from",
          "type": "address"
        },
        {
          "internalType": "address",
          "name": "to",
          "type": "address"
        },
        {
          "internalType": "uint256",
          "name": "tokenId",
          "type": "uint256"
        }
      ],
      "name": "transferFrom",
      "outputs": [],
      "stateMutability": "nonpayable",
      "type": "function"
    }
  ],
  "bytecode": "0x60806040526000600860006101000a81548173ffffffffffffffffffffffffffffffffffffffff021916908373ffffffffffffffffffffffffffffffffffffffff1602179055503480156200005357600080fd5b506040518060400160405280601281526020017f57617272616e74794d616e6167656d656e7400000000000000000000000000008152506040518060400160405280600381526020017f574d4d000000000000000000000000000000000000000000000000000000000081525081818160009080519060200190620000da929190620002d7565b508060019080519060200190620000f3929190620002d7565b5050506200011a6000801b6200010e6200017260201b60201c565b6200017a60201b60201c565b6200012a6200017260201b60201c565b600860006101000a81548173ffffffffffffffffffffffffffffffffffffffff021916908373ffffffffffffffffffffffffffffffffffffffff1602179055505050620003ec565b600033905090565b6200018c82826200026c60201b60201c565b620002685760016007600084815260200190815260200160002060000160008373ffffffffffffffffffffffffffffffffffffffff1673ffffffffffffffffffffffffffffffffffffffff16815260200190815260200160002060006101000a81548160ff0219169083151502179055506200020d6200017260201b60201c565b73ffffffffffffffffffffffffffffffffffffffff168173ffffffffffffffffffffffffffffffffffffffff16837f2f8788117e7eff1d82e926ec794901d17c78024a50270940304540a733656f0d60405160405180910390a45b5050565b60006007600084815260200190815260200160002060000160008373ffffffffffffffffffffffffffffffffffffffff1673ffffffffffffffffffffffffffffffffffffffff16815260200190815260200160002060009054906101000a900460ff16905092915050565b828054620002e59062000387565b90600052602060002090601f01602090048101928262000309576000855562000355565b82601f106200032457805160ff191683800117855562000355565b8280016001018555821562000355579182015b828111156200035457825182559160200191906001019062000337565b5b50905062000364919062000368565b5090565b5b808211156200038357600081600090555060010162000369565b5090565b60006002820490506001821680620003a057607f821691505b60208210811415620003b757620003b6620003bd565b5b50919050565b7f4e487b7100000000000000000000000000000000000000000000000000000000600052602260045260246000fd5b61474d80620003fc6000396000f3fe608060405234801561001057600080fd5b50600436106101585760003560e01c806370a08231116100c3578063b88d4fde1161007c578063b88d4fde146103e7578063c87b56dd14610403578063d547741f14610433578063e765cea11461044f578063e985e9c51461047f578063eeac39d8146104af57610158565b806370a08231146102ff5780637d0b558b1461032f57806391d148541461035f57806395d89b411461038f578063a217fddf146103ad578063a22cb465146103cb57610158565b8063248a9ca311610115578063248a9ca31461022f5780632f2ff15d1461025f5780633547ed561461027b57806336568abe1461029757806342842e0e146102b35780636352211e146102cf57610158565b806301ffc9a71461015d57806306fdde031461018d578063081812fc146101ab578063095ea7b3146101db57806319b2bf1e146101f757806323b872dd14610213575b600080fd5b6101776004803603810190610172919061317b565b6104df565b60405161018491906137a3565b60405180910390f35b6101956105c1565b6040516101a29190613886565b60405180910390f35b6101c560048036038101906101c091906131cd565b610653565b6040516101d2919061373c565b60405180910390f35b6101f560048036038101906101f09190612f78565b6106d8565b005b610211600480360381019061020c9190613019565b6107f0565b005b61022d60048036038101906102289190612e72565b610983565b005b61024960048036038101906102449190612fb4565b6109e3565b60405161025691906137be565b60405180910390f35b61027960048036038101906102749190612fdd565b610a03565b005b610295600480360381019061029091906131f6565b610a24565b005b6102b160048036038101906102ac9190612fdd565b610b1a565b005b6102cd60048036038101906102c89190612e72565b610b9d565b005b6102e960048036038101906102e491906131cd565b610bbd565b6040516102f6919061373c565b60405180910390f35b61031960048036038101906103149190612e0d565b610c6f565b6040516103269190613ba8565b60405180910390f35b610349600480360381019061034491906130d4565b610d27565b60405161035691906137a3565b60405180910390f35b61037960048036038101906103749190612fdd565b6110ac565b60405161038691906137a3565b60405180910390f35b610397611117565b6040516103a49190613886565b60405180910390f35b6103b56111a9565b6040516103c291906137be565b60405180910390f35b6103e560048036038101906103e09190612f3c565b6111b0565b005b61040160048036038101906103fc9190612ec1565b6111c6565b005b61041d600480360381019061041891906131cd565b611228565b60405161042a9190613886565b60405180910390f35b61044d60048036038101906104489190612fdd565b61137a565b005b61046960048036038101906104649190613055565b61139b565b60405161047691906137a3565b60405180910390f35b61049960048036038101906104949190612e36565b61154e565b6040516104a691906137a3565b60405180910390f35b6104c960048036038101906104c49190612fb4565b6115e2565b6040516104d691906137a3565b60405180910390f35b60007f80ac58cd000000000000000000000000000000000000000000000000000000007bffffffffffffffffffffffffffffffffffffffffffffffffffffffff1916827bffffffffffffffffffffffffffffffffffffffffffffffffffffffff191614806105aa57507f5b5e139f000000000000000000000000000000000000000000000000000000007bffffffffffffffffffffffffffffffffffffffffffffffffffffffff1916827bffffffffffffffffffffffffffffffffffffffffffffffffffffffff1916145b806105ba57506105b982611667565b5b9050919050565b6060600080546105d090613e8c565b80601f01602080910402602001604051908101604052809291908181526020018280546105fc90613e8c565b80156106495780601f1061061e57610100808354040283529160200191610649565b820191906000526020600020905b81548152906001019060200180831161062c57829003601f168201915b5050505050905090565b600061065e826116e1565b61069d576040517f08c379a000000000000000000000000000000000000000000000000000000000815260040161069490613ac8565b60405180910390fd5b6004600083815260200190815260200160002060009054906101000a900473ffffffffffffffffffffffffffffffffffffffff169050919050565b60006106e382610bbd565b90508073ffffffffffffffffffffffffffffffffffffffff168373ffffffffffffffffffffffffffffffffffffffff161415610754576040517f08c379a000000000000000000000000000000000000000000000000000000000815260040161074b90613b28565b60405180910390fd5b8073ffffffffffffffffffffffffffffffffffffffff1661077361174d565b73ffffffffffffffffffffffffffffffffffffffff1614806107a257506107a18161079c61174d565b61154e565b5b6107e1576040517f08c379a00000000000000000000000000000000000000000000000000000000081526004016107d890613a08565b60405180910390fd5b6107eb8383611755565b505050565b60006009600083815260200190815260200160002090506000600a600085815260200190815260200160002090508160000160009054906101000a900473ffffffffffffffffffffffffffffffffffffffff1673ffffffffffffffffffffffffffffffffffffffff168160000160009054906101000a900473ffffffffffffffffffffffffffffffffffffffff1673ffffffffffffffffffffffffffffffffffffffff16146108d4576040517f08c379a00000000000000000000000000000000000000000000000000000000081526004016108cb90613908565b60405180910390fd5b4282600301541161091a576040517f08c379a0000000000000000000000000000000000000000000000000000000008152600401610911906138c8565b60405180910390fd5b6003826004015410610961576040517f08c379a000000000000000000000000000000000000000000000000000000000815260040161095890613968565b60405180910390fd5b60018260040160008282546109769190613c8d565b9250508190555050505050565b61099461098e61174d565b8261180e565b6109d3576040517f08c379a00000000000000000000000000000000000000000000000000000000081526004016109ca90613b48565b60405180910390fd5b6109de8383836118ec565b505050565b600060076000838152602001908152602001600020600101549050919050565b610a0c826109e3565b610a1581611b53565b610a1f8383611b67565b505050565b6000600a60008381526020019081526020016000209050428160040160008581526020019081526020016000206003015410610a95576040517f08c379a0000000000000000000000000000000000000000000000000000000008152600401610a8c90613b08565b60405180910390fd5b610a9e83611c48565b806004016000848152602001908152602001600020600080820160006101000a81549073ffffffffffffffffffffffffffffffffffffffff0219169055600182016000610aeb9190612bdc565b600282016000905560038201600090556004820160009055600582016000610b139190612bdc565b5050505050565b610b2261174d565b73ffffffffffffffffffffffffffffffffffffffff168173ffffffffffffffffffffffffffffffffffffffff1614610b8f576040517f08c379a0000000000000000000000000000000000000000000000000000000008152600401610b8690613b88565b60405180910390fd5b610b998282611c9b565b5050565b610bb8838383604051806020016040528060008152506111c6565b505050565b6000806002600084815260200190815260200160002060009054906101000a900473ffffffffffffffffffffffffffffffffffffffff169050600073ffffffffffffffffffffffffffffffffffffffff168173ffffffffffffffffffffffffffffffffffffffff161415610c66576040517f08c379a0000000000000000000000000000000000000000000000000000000008152600401610c5d90613a48565b60405180910390fd5b80915050919050565b60008073ffffffffffffffffffffffffffffffffffffffff168273ffffffffffffffffffffffffffffffffffffffff161415610ce0576040517f08c379a0000000000000000000000000000000000000000000000000000000008152600401610cd790613a28565b60405180910390fd5b600360008373ffffffffffffffffffffffffffffffffffffffff1673ffffffffffffffffffffffffffffffffffffffff168152602001908152602001600020549050919050565b600080600a60008881526020019081526020016000209050600073ffffffffffffffffffffffffffffffffffffffff16600a600089815260200190815260200160002060000160009054906101000a900473ffffffffffffffffffffffffffffffffffffffff1673ffffffffffffffffffffffffffffffffffffffff161415610de5576040517f08c379a0000000000000000000000000000000000000000000000000000000008152600401610ddc906139c8565b60405180910390fd5b60008786604051602001610dfa9291906136b6565b60405160208183030381529060405280519060200120905060006040518060c001604052808460000160009054906101000a900473ffffffffffffffffffffffffffffffffffffffff1673ffffffffffffffffffffffffffffffffffffffff16815260200188815260200142815260200187815260200160008152602001868152509050806009600084815260200190815260200160002060008201518160000160006101000a81548173ffffffffffffffffffffffffffffffffffffffff021916908373ffffffffffffffffffffffffffffffffffffffff1602179055506020820151816001019080519060200190610ef5929190612c1c565b5060408201518160020155606082015181600301556080820151816004015560a0820151816005019080519060200190610f30929190612c1c565b509050506001836003016000828254610f499190613c8d565b92505081905550808360040160008560030154815260200190815260200160002060008201518160000160006101000a81548173ffffffffffffffffffffffffffffffffffffffff021916908373ffffffffffffffffffffffffffffffffffffffff1602179055506020820151816001019080519060200190610fcd929190612c1c565b5060408201518160020155606082015181600301556080820151816004015560a0820151816005019080519060200190611008929190612c1c565b509050507fcda18c8138e42b94099d6b8840cafa4007d682eed956a2cda37143fbcf341aa7828460000160009054906101000a900473ffffffffffffffffffffffffffffffffffffffff168742604051611065949392919061383a565b60405180910390a161109c8360000160009054906101000a900473ffffffffffffffffffffffffffffffffffffffff168987611d7d565b6001935050505095945050505050565b60006007600084815260200190815260200160002060000160008373ffffffffffffffffffffffffffffffffffffffff1673ffffffffffffffffffffffffffffffffffffffff16815260200190815260200160002060009054906101000a900460ff16905092915050565b60606001805461112690613e8c565b80601f016020809104026020016040519081016040528092919081815260200182805461115290613e8c565b801561119f5780601f106111745761010080835404028352916020019161119f565b820191906000526020600020905b81548152906001019060200180831161118257829003601f168201915b5050505050905090565b6000801b81565b6111c26111bb61174d565b8383611d96565b5050565b6111d76111d161174d565b8361180e565b611216576040517f08c379a000000000000000000000000000000000000000000000000000000000815260040161120d90613b48565b60405180910390fd5b61122284848484611f03565b50505050565b6060611233826116e1565b611272576040517f08c379a000000000000000000000000000000000000000000000000000000000815260040161126990613aa8565b60405180910390fd5b600060066000848152602001908152602001600020805461129290613e8c565b80601f01602080910402602001604051908101604052809291908181526020018280546112be90613e8c565b801561130b5780601f106112e05761010080835404028352916020019161130b565b820191906000526020600020905b8154815290600101906020018083116112ee57829003601f168201915b50505050509050600061131c611f5f565b9050600081511415611332578192505050611375565b60008251111561136757808260405160200161134f9291906136de565b60405160208183030381529060405292505050611375565b61137084611f76565b925050505b919050565b611383826109e3565b61138c81611b53565b6113968383611c9b565b505050565b600080600a60008681526020019081526020016000209050600073ffffffffffffffffffffffffffffffffffffffff16600a600087815260200190815260200160002060000160009054906101000a900473ffffffffffffffffffffffffffffffffffffffff1673ffffffffffffffffffffffffffffffffffffffff1614611458576040517f08c379a000000000000000000000000000000000000000000000000000000000815260040161144f90613b68565b60405180910390fd5b338160000160006101000a81548173ffffffffffffffffffffffffffffffffffffffff021916908373ffffffffffffffffffffffffffffffffffffffff160217905550838160010190805190602001906114b3929190612c1c565b5082600a600087815260200190815260200160002060020190805190602001906114de929190612c1c565b507f0e68c41693addaa8470d0d5deef44e929cc97722d3514dbae22b87ac1195e3fd858260000160009054906101000a900473ffffffffffffffffffffffffffffffffffffffff1686864260405161153a9594939291906137d9565b60405180910390a160019150509392505050565b6000600560008473ffffffffffffffffffffffffffffffffffffffff1673ffffffffffffffffffffffffffffffffffffffff16815260200190815260200160002060008373ffffffffffffffffffffffffffffffffffffffff1673ffffffffffffffffffffffffffffffffffffffff16815260200190815260200160002060009054906101000a900460ff16905092915050565b6000806009600084815260200190815260200160002090503373ffffffffffffffffffffffffffffffffffffffff168160000160009054906101000a900473ffffffffffffffffffffffffffffffffffffffff1673ffffffffffffffffffffffffffffffffffffffff16141561165c576001915050611662565b60009150505b919050565b60007f7965db0b000000000000000000000000000000000000000000000000000000007bffffffffffffffffffffffffffffffffffffffffffffffffffffffff1916827bffffffffffffffffffffffffffffffffffffffffffffffffffffffff191614806116da57506116d98261201d565b5b9050919050565b60008073ffffffffffffffffffffffffffffffffffffffff166002600084815260200190815260200160002060009054906101000a900473ffffffffffffffffffffffffffffffffffffffff1673ffffffffffffffffffffffffffffffffffffffff1614159050919050565b600033905090565b816004600083815260200190815260200160002060006101000a81548173ffffffffffffffffffffffffffffffffffffffff021916908373ffffffffffffffffffffffffffffffffffffffff160217905550808273ffffffffffffffffffffffffffffffffffffffff166117c883610bbd565b73ffffffffffffffffffffffffffffffffffffffff167f8c5be1e5ebec7d5bd14f71427d1e84f3dd0314c0f7b2291e5b200ac8c7c3b92560405160405180910390a45050565b6000611819826116e1565b611858576040517f08c379a000000000000000000000000000000000000000000000000000000000815260040161184f906139e8565b60405180910390fd5b600061186383610bbd565b90508073ffffffffffffffffffffffffffffffffffffffff168473ffffffffffffffffffffffffffffffffffffffff1614806118a557506118a4818561154e565b5b806118e357508373ffffffffffffffffffffffffffffffffffffffff166118cb84610653565b73ffffffffffffffffffffffffffffffffffffffff16145b91505092915050565b8273ffffffffffffffffffffffffffffffffffffffff1661190c82610bbd565b73ffffffffffffffffffffffffffffffffffffffff1614611962576040517f08c379a000000000000000000000000000000000000000000000000000000000815260040161195990613928565b60405180910390fd5b600073ffffffffffffffffffffffffffffffffffffffff168273ffffffffffffffffffffffffffffffffffffffff1614156119d2576040517f08c379a00000000000000000000000000000000000000000000000000000000081526004016119c990613988565b60405180910390fd5b6119dd8383836120ff565b6119e8600082611755565b6001600360008573ffffffffffffffffffffffffffffffffffffffff1673ffffffffffffffffffffffffffffffffffffffff1681526020019081526020016000206000828254611a389190613d6e565b925050819055506001600360008473ffffffffffffffffffffffffffffffffffffffff1673ffffffffffffffffffffffffffffffffffffffff1681526020019081526020016000206000828254611a8f9190613c8d565b92505081905550816002600083815260200190815260200160002060006101000a81548173ffffffffffffffffffffffffffffffffffffffff021916908373ffffffffffffffffffffffffffffffffffffffff160217905550808273ffffffffffffffffffffffffffffffffffffffff168473ffffffffffffffffffffffffffffffffffffffff167fddf252ad1be2c89b69c2b068fc378daa952ba7f163c4a11628f55a4df523b3ef60405160405180910390a4611b4e838383612104565b505050565b611b6481611b5f61174d565b612109565b50565b611b7182826110ac565b611c445760016007600084815260200190815260200160002060000160008373ffffffffffffffffffffffffffffffffffffffff1673ffffffffffffffffffffffffffffffffffffffff16815260200190815260200160002060006101000a81548160ff021916908315150217905550611be961174d565b73ffffffffffffffffffffffffffffffffffffffff168173ffffffffffffffffffffffffffffffffffffffff16837f2f8788117e7eff1d82e926ec794901d17c78024a50270940304540a733656f0d60405160405180910390a45b5050565b611c51816121a6565b6000600660008381526020019081526020016000208054611c7190613e8c565b905014611c9857600660008281526020019081526020016000206000611c979190612bdc565b5b50565b611ca582826110ac565b15611d795760006007600084815260200190815260200160002060000160008373ffffffffffffffffffffffffffffffffffffffff1673ffffffffffffffffffffffffffffffffffffffff16815260200190815260200160002060006101000a81548160ff021916908315150217905550611d1e61174d565b73ffffffffffffffffffffffffffffffffffffffff168173ffffffffffffffffffffffffffffffffffffffff16837ff6391f5c32d9c69d2a47ea670b442974b53935d1edc7fd64eb21e047a839171b60405160405180910390a45b5050565b611d8783836122c3565b611d91828261249d565b505050565b8173ffffffffffffffffffffffffffffffffffffffff168373ffffffffffffffffffffffffffffffffffffffff161415611e05576040517f08c379a0000000000000000000000000000000000000000000000000000000008152600401611dfc906139a8565b60405180910390fd5b80600560008573ffffffffffffffffffffffffffffffffffffffff1673ffffffffffffffffffffffffffffffffffffffff16815260200190815260200160002060008473ffffffffffffffffffffffffffffffffffffffff1673ffffffffffffffffffffffffffffffffffffffff16815260200190815260200160002060006101000a81548160ff0219169083151502179055508173ffffffffffffffffffffffffffffffffffffffff168373ffffffffffffffffffffffffffffffffffffffff167f17307eab39ab6107e8899845ad3d59bd9653f200f220920489ca2b5937696c3183604051611ef691906137a3565b60405180910390a3505050565b611f0e8484846118ec565b611f1a84848484612511565b611f59576040517f08c379a0000000000000000000000000000000000000000000000000000000008152600401611f50906138e8565b60405180910390fd5b50505050565b606060405180602001604052806000815250905090565b6060611f81826116e1565b611fc0576040517f08c379a0000000000000000000000000000000000000000000000000000000008152600401611fb790613ae8565b60405180910390fd5b6000611fca611f5f565b90506000815111611fea5760405180602001604052806000815250612015565b80611ff4846126a8565b6040516020016120059291906136de565b6040516020818303038152906040525b915050919050565b60007f80ac58cd000000000000000000000000000000000000000000000000000000007bffffffffffffffffffffffffffffffffffffffffffffffffffffffff1916827bffffffffffffffffffffffffffffffffffffffffffffffffffffffff191614806120e857507f5b5e139f000000000000000000000000000000000000000000000000000000007bffffffffffffffffffffffffffffffffffffffffffffffffffffffff1916827bffffffffffffffffffffffffffffffffffffffffffffffffffffffff1916145b806120f857506120f782612855565b5b9050919050565b505050565b505050565b61211382826110ac565b6121a2576121388173ffffffffffffffffffffffffffffffffffffffff1660146128bf565b6121468360001c60206128bf565b604051602001612157929190613702565b6040516020818303038152906040526040517f08c379a00000000000000000000000000000000000000000000000000000000081526004016121999190613886565b60405180910390fd5b5050565b60006121b182610bbd565b90506121bf816000846120ff565b6121ca600083611755565b6001600360008373ffffffffffffffffffffffffffffffffffffffff1673ffffffffffffffffffffffffffffffffffffffff168152602001908152602001600020600082825461221a9190613d6e565b925050819055506002600083815260200190815260200160002060006101000a81549073ffffffffffffffffffffffffffffffffffffffff021916905581600073ffffffffffffffffffffffffffffffffffffffff168273ffffffffffffffffffffffffffffffffffffffff167fddf252ad1be2c89b69c2b068fc378daa952ba7f163c4a11628f55a4df523b3ef60405160405180910390a46122bf81600084612104565b5050565b600073ffffffffffffffffffffffffffffffffffffffff168273ffffffffffffffffffffffffffffffffffffffff161415612333576040517f08c379a000000000000000000000000000000000000000000000000000000000815260040161232a90613a88565b60405180910390fd5b61233c816116e1565b1561237c576040517f08c379a000000000000000000000000000000000000000000000000000000000815260040161237390613948565b60405180910390fd5b612388600083836120ff565b6001600360008473ffffffffffffffffffffffffffffffffffffffff1673ffffffffffffffffffffffffffffffffffffffff16815260200190815260200160002060008282546123d89190613c8d565b92505081905550816002600083815260200190815260200160002060006101000a81548173ffffffffffffffffffffffffffffffffffffffff021916908373ffffffffffffffffffffffffffffffffffffffff160217905550808273ffffffffffffffffffffffffffffffffffffffff16600073ffffffffffffffffffffffffffffffffffffffff167fddf252ad1be2c89b69c2b068fc378daa952ba7f163c4a11628f55a4df523b3ef60405160405180910390a461249960008383612104565b5050565b6124a6826116e1565b6124e5576040517f08c379a00000000000000000000000000000000000000000000000000000000081526004016124dc90613a68565b60405180910390fd5b8060066000848152602001908152602001600020908051906020019061250c929190612c1c565b505050565b60006125328473ffffffffffffffffffffffffffffffffffffffff16612bb9565b1561269b578373ffffffffffffffffffffffffffffffffffffffff1663150b7a0261255b61174d565b8786866040518563ffffffff1660e01b815260040161257d9493929190613757565b602060405180830381600087803b15801561259757600080fd5b505af19250505080156125c857506040513d601f19601f820116820180604052508101906125c591906131a4565b60015b61264b573d80600081146125f8576040519150601f19603f3d011682016040523d82523d6000602084013e6125fd565b606091505b50600081511415612643576040517f08c379a000000000000000000000000000000000000000000000000000000000815260040161263a906138e8565b60405180910390fd5b805181602001fd5b63150b7a0260e01b7bffffffffffffffffffffffffffffffffffffffffffffffffffffffff1916817bffffffffffffffffffffffffffffffffffffffffffffffffffffffff1916149150506126a0565b600190505b949350505050565b606060008214156126f0576040518060400160405280600181526020017f30000000000000000000000000000000000000000000000000000000000000008152509050612850565b600082905060005b6000821461272257808061270b90613eef565b915050600a8261271b9190613ce3565b91506126f8565b60008167ffffffffffffffff811115612764577f4e487b7100000000000000000000000000000000000000000000000000000000600052604160045260246000fd5b6040519080825280601f01601f1916602001820160405280156127965781602001600182028036833780820191505090505b5090505b60008514612849576001826127af9190613d6e565b9150600a856127be9190613f42565b60306127ca9190613c8d565b60f81b818381518110612806577f4e487b7100000000000000000000000000000000000000000000000000000000600052603260045260246000fd5b60200101907effffffffffffffffffffffffffffffffffffffffffffffffffffffffffffff1916908160001a905350600a856128429190613ce3565b945061279a565b8093505050505b919050565b60007f01ffc9a7000000000000000000000000000000000000000000000000000000007bffffffffffffffffffffffffffffffffffffffffffffffffffffffff1916827bffffffffffffffffffffffffffffffffffffffffffffffffffffffff1916149050919050565b6060600060028360026128d29190613d14565b6128dc9190613c8d565b67ffffffffffffffff81111561291b577f4e487b7100000000000000000000000000000000000000000000000000000000600052604160045260246000fd5b6040519080825280601f01601f19166020018201604052801561294d5781602001600182028036833780820191505090505b5090507f3000000000000000000000000000000000000000000000000000000000000000816000815181106129ab577f4e487b7100000000000000000000000000000000000000000000000000000000600052603260045260246000fd5b60200101907effffffffffffffffffffffffffffffffffffffffffffffffffffffffffffff1916908160001a9053507f780000000000000000000000000000000000000000000000000000000000000081600181518110612a35577f4e487b7100000000000000000000000000000000000000000000000000000000600052603260045260246000fd5b60200101907effffffffffffffffffffffffffffffffffffffffffffffffffffffffffffff1916908160001a90535060006001846002612a759190613d14565b612a7f9190613c8d565b90505b6001811115612b6b577f3031323334353637383961626364656600000000000000000000000000000000600f861660108110612ae7577f4e487b7100000000000000000000000000000000000000000000000000000000600052603260045260246000fd5b1a60f81b828281518110612b24577f4e487b7100000000000000000000000000000000000000000000000000000000600052603260045260246000fd5b60200101907effffffffffffffffffffffffffffffffffffffffffffffffffffffffffffff1916908160001a905350600485901c945080612b6490613e62565b9050612a82565b5060008414612baf576040517f08c379a0000000000000000000000000000000000000000000000000000000008152600401612ba6906138a8565b60405180910390fd5b8091505092915050565b6000808273ffffffffffffffffffffffffffffffffffffffff163b119050919050565b508054612be890613e8c565b6000825580601f10612bfa5750612c19565b601f016020900490600052602060002090810190612c189190612ca2565b5b50565b828054612c2890613e8c565b90600052602060002090601f016020900481019282612c4a5760008555612c91565b82601f10612c6357805160ff1916838001178555612c91565b82800160010185558215612c91579182015b82811115612c90578251825591602001919060010190612c75565b5b509050612c9e9190612ca2565b5090565b5b80821115612cbb576000816000905550600101612ca3565b5090565b6000612cd2612ccd84613be8565b613bc3565b905082815260208101848484011115612cea57600080fd5b612cf5848285613e20565b509392505050565b6000612d10612d0b84613c19565b613bc3565b905082815260208101848484011115612d2857600080fd5b612d33848285613e20565b509392505050565b600081359050612d4a816146a4565b92915050565b600081359050612d5f816146bb565b92915050565b600081359050612d74816146d2565b92915050565b600081359050612d89816146e9565b92915050565b600081519050612d9e816146e9565b92915050565b600082601f830112612db557600080fd5b8135612dc5848260208601612cbf565b91505092915050565b600082601f830112612ddf57600080fd5b8135612def848260208601612cfd565b91505092915050565b600081359050612e0781614700565b92915050565b600060208284031215612e1f57600080fd5b6000612e2d84828501612d3b565b91505092915050565b60008060408385031215612e4957600080fd5b6000612e5785828601612d3b565b9250506020612e6885828601612d3b565b9150509250929050565b600080600060608486031215612e8757600080fd5b6000612e9586828701612d3b565b9350506020612ea686828701612d3b565b9250506040612eb786828701612df8565b9150509250925092565b60008060008060808587031215612ed757600080fd5b6000612ee587828801612d3b565b9450506020612ef687828801612d3b565b9350506040612f0787828801612df8565b925050606085013567ffffffffffffffff811115612f2457600080fd5b612f3087828801612da4565b91505092959194509250565b60008060408385031215612f4f57600080fd5b6000612f5d85828601612d3b565b9250506020612f6e85828601612d50565b9150509250929050565b60008060408385031215612f8b57600080fd5b6000612f9985828601612d3b565b9250506020612faa85828601612df8565b9150509250929050565b600060208284031215612fc657600080fd5b6000612fd484828501612d65565b91505092915050565b60008060408385031215612ff057600080fd5b6000612ffe85828601612d65565b925050602061300f85828601612d3b565b9150509250929050565b6000806040838503121561302c57600080fd5b600061303a85828601612d65565b925050602061304b85828601612d65565b9150509250929050565b60008060006060848603121561306a57600080fd5b600061307886828701612d65565b935050602084013567ffffffffffffffff81111561309557600080fd5b6130a186828701612dce565b925050604084013567ffffffffffffffff8111156130be57600080fd5b6130ca86828701612dce565b9150509250925092565b600080600080600060a086880312156130ec57600080fd5b60006130fa88828901612d65565b955050602061310b88828901612df8565b945050604086013567ffffffffffffffff81111561312857600080fd5b61313488828901612dce565b935050606061314588828901612df8565b925050608086013567ffffffffffffffff81111561316257600080fd5b61316e88828901612dce565b9150509295509295909350565b60006020828403121561318d57600080fd5b600061319b84828501612d7a565b91505092915050565b6000602082840312156131b657600080fd5b60006131c484828501612d8f565b91505092915050565b6000602082840312156131df57600080fd5b60006131ed84828501612df8565b91505092915050565b6000806040838503121561320957600080fd5b600061321785828601612df8565b925050602061322885828601612d65565b9150509250929050565b61323b81613da2565b82525050565b61324a81613db4565b82525050565b61325981613dc0565b82525050565b61327061326b82613dc0565b613f38565b82525050565b600061328182613c4a565b61328b8185613c60565b935061329b818560208601613e2f565b6132a48161402f565b840191505092915050565b60006132ba82613c55565b6132c48185613c71565b93506132d4818560208601613e2f565b6132dd8161402f565b840191505092915050565b60006132f382613c55565b6132fd8185613c82565b935061330d818560208601613e2f565b80840191505092915050565b6000613326602083613c71565b915061333182614040565b602082019050919050565b6000613349601883613c71565b915061335482614069565b602082019050919050565b600061336c603283613c71565b915061337782614092565b604082019050919050565b600061338f602583613c71565b915061339a826140e1565b604082019050919050565b60006133b2602583613c71565b91506133bd82614130565b604082019050919050565b60006133d5601c83613c71565b91506133e08261417f565b602082019050919050565b60006133f8601383613c71565b9150613403826141a8565b602082019050919050565b600061341b602483613c71565b9150613426826141d1565b604082019050919050565b600061343e601983613c71565b915061344982614220565b602082019050919050565b6000613461601183613c71565b915061346c82614249565b602082019050919050565b6000613484602c83613c71565b915061348f82614272565b604082019050919050565b60006134a7603883613c71565b91506134b2826142c1565b604082019050919050565b60006134ca602a83613c71565b91506134d582614310565b604082019050919050565b60006134ed602983613c71565b91506134f88261435f565b604082019050919050565b6000613510602e83613c71565b915061351b826143ae565b604082019050919050565b6000613533602083613c71565b915061353e826143fd565b602082019050919050565b6000613556603183613c71565b915061356182614426565b604082019050919050565b6000613579602c83613c71565b915061358482614475565b604082019050919050565b600061359c602f83613c71565b91506135a7826144c4565b604082019050919050565b60006135bf601983613c71565b91506135ca82614513565b602082019050919050565b60006135e2602183613c71565b91506135ed8261453c565b604082019050919050565b6000613605603183613c71565b91506136108261458b565b604082019050919050565b6000613628601783613c82565b9150613633826145da565b601782019050919050565b600061364b601a83613c71565b915061365682614603565b602082019050919050565b600061366e601183613c82565b91506136798261462c565b601182019050919050565b6000613691602f83613c71565b915061369c82614655565b604082019050919050565b6136b081613e16565b82525050565b60006136c2828561325f565b6020820191506136d282846132e8565b91508190509392505050565b60006136ea82856132e8565b91506136f682846132e8565b91508190509392505050565b600061370d8261361b565b915061371982856132e8565b915061372482613661565b915061373082846132e8565b91508190509392505050565b60006020820190506137516000830184613232565b92915050565b600060808201905061376c6000830187613232565b6137796020830186613232565b61378660408301856136a7565b81810360608301526137988184613276565b905095945050505050565b60006020820190506137b86000830184613241565b92915050565b60006020820190506137d36000830184613250565b92915050565b600060a0820190506137ee6000830188613250565b6137fb6020830187613232565b818103604083015261380d81866132af565b9050818103606083015261382181856132af565b905061383060808301846136a7565b9695505050505050565b600060808201905061384f6000830187613250565b61385c6020830186613232565b818103604083015261386e81856132af565b905061387d60608301846136a7565b95945050505050565b600060208201905081810360008301526138a081846132af565b905092915050565b600060208201905081810360008301526138c181613319565b9050919050565b600060208201905081810360008301526138e18161333c565b9050919050565b600060208201905081810360008301526139018161335f565b9050919050565b6000602082019050818103600083015261392181613382565b9050919050565b60006020820190508181036000830152613941816133a5565b9050919050565b60006020820190508181036000830152613961816133c8565b9050919050565b60006020820190508181036000830152613981816133eb565b9050919050565b600060208201905081810360008301526139a18161340e565b9050919050565b600060208201905081810360008301526139c181613431565b9050919050565b600060208201905081810360008301526139e181613454565b9050919050565b60006020820190508181036000830152613a0181613477565b9050919050565b60006020820190508181036000830152613a218161349a565b9050919050565b60006020820190508181036000830152613a41816134bd565b9050919050565b60006020820190508181036000830152613a61816134e0565b9050919050565b60006020820190508181036000830152613a8181613503565b9050919050565b60006020820190508181036000830152613aa181613526565b9050919050565b60006020820190508181036000830152613ac181613549565b9050919050565b60006020820190508181036000830152613ae18161356c565b9050919050565b60006020820190508181036000830152613b018161358f565b9050919050565b60006020820190508181036000830152613b21816135b2565b9050919050565b60006020820190508181036000830152613b41816135d5565b9050919050565b60006020820190508181036000830152613b61816135f8565b9050919050565b60006020820190508181036000830152613b818161363e565b9050919050565b60006020820190508181036000830152613ba181613684565b9050919050565b6000602082019050613bbd60008301846136a7565b92915050565b6000613bcd613bde565b9050613bd98282613ebe565b919050565b6000604051905090565b600067ffffffffffffffff821115613c0357613c02614000565b5b613c0c8261402f565b9050602081019050919050565b600067ffffffffffffffff821115613c3457613c33614000565b5b613c3d8261402f565b9050602081019050919050565b600081519050919050565b600081519050919050565b600082825260208201905092915050565b600082825260208201905092915050565b600081905092915050565b6000613c9882613e16565b9150613ca383613e16565b9250827fffffffffffffffffffffffffffffffffffffffffffffffffffffffffffffffff03821115613cd857613cd7613f73565b5b828201905092915050565b6000613cee82613e16565b9150613cf983613e16565b925082613d0957613d08613fa2565b5b828204905092915050565b6000613d1f82613e16565b9150613d2a83613e16565b9250817fffffffffffffffffffffffffffffffffffffffffffffffffffffffffffffffff0483118215151615613d6357613d62613f73565b5b828202905092915050565b6000613d7982613e16565b9150613d8483613e16565b925082821015613d9757613d96613f73565b5b828203905092915050565b6000613dad82613df6565b9050919050565b60008115159050919050565b6000819050919050565b60007fffffffff0000000000000000000000000000000000000000000000000000000082169050919050565b600073ffffffffffffffffffffffffffffffffffffffff82169050919050565b6000819050919050565b82818337600083830152505050565b60005b83811015613e4d578082015181840152602081019050613e32565b83811115613e5c576000848401525b50505050565b6000613e6d82613e16565b91506000821415613e8157613e80613f73565b5b600182039050919050565b60006002820490506001821680613ea457607f821691505b60208210811415613eb857613eb7613fd1565b5b50919050565b613ec78261402f565b810181811067ffffffffffffffff82111715613ee657613ee5614000565b5b80604052505050565b6000613efa82613e16565b91507fffffffffffffffffffffffffffffffffffffffffffffffffffffffffffffffff821415613f2d57613f2c613f73565b5b600182019050919050565b6000819050919050565b6000613f4d82613e16565b9150613f5883613e16565b925082613f6857613f67613fa2565b5b828206905092915050565b7f4e487b7100000000000000000000000000000000000000000000000000000000600052601160045260246000fd5b7f4e487b7100000000000000000000000000000000000000000000000000000000600052601260045260246000fd5b7f4e487b7100000000000000000000000000000000000000000000000000000000600052602260045260246000fd5b7f4e487b7100000000000000000000000000000000000000000000000000000000600052604160045260246000fd5b6000601f19601f8301169050919050565b7f537472696e67733a20686578206c656e67746820696e73756666696369656e74600082015250565b7f77617272656e7479204361726420697320457870697265640000000000000000600082015250565b7f4552433732313a207472616e7366657220746f206e6f6e20455243373231526560008201527f63656976657220696d706c656d656e7465720000000000000000000000000000602082015250565b7f427579657220646f6573206e6f74206f776e20746869732077617272616e747960008201527f2063617264000000000000000000000000000000000000000000000000000000602082015250565b7f4552433732313a207472616e736665722066726f6d20696e636f72726563742060008201527f6f776e6572000000000000000000000000000000000000000000000000000000602082015250565b7f4552433732313a20746f6b656e20616c7265616479206d696e74656400000000600082015250565b7f416c6c2073657276696365732069737375656400000000000000000000000000600082015250565b7f4552433732313a207472616e7366657220746f20746865207a65726f2061646460008201527f7265737300000000000000000000000000000000000000000000000000000000602082015250565b7f4552433732313a20617070726f766520746f2063616c6c657200000000000000600082015250565b7f627579657220646f657320657869737473000000000000000000000000000000600082015250565b7f4552433732313a206f70657261746f7220717565727920666f72206e6f6e657860008201527f697374656e7420746f6b656e0000000000000000000000000000000000000000602082015250565b7f4552433732313a20617070726f76652063616c6c6572206973206e6f74206f7760008201527f6e6572206e6f7220617070726f76656420666f7220616c6c0000000000000000602082015250565b7f4552433732313a2062616c616e636520717565727920666f7220746865207a6560008201527f726f206164647265737300000000000000000000000000000000000000000000602082015250565b7f4552433732313a206f776e657220717565727920666f72206e6f6e657869737460008201527f656e7420746f6b656e0000000000000000000000000000000000000000000000602082015250565b7f45524337323155524953746f726167653a2055524920736574206f66206e6f6e60008201527f6578697374656e7420746f6b656e000000000000000000000000000000000000602082015250565b7f4552433732313a206d696e7420746f20746865207a65726f2061646472657373600082015250565b7f45524337323155524953746f726167653a2055524920717565727920666f722060008201527f6e6f6e6578697374656e7420746f6b656e000000000000000000000000000000602082015250565b7f4552433732313a20617070726f76656420717565727920666f72206e6f6e657860008201527f697374656e7420746f6b656e0000000000000000000000000000000000000000602082015250565b7f4552433732314d657461646174613a2055524920717565727920666f72206e6f60008201527f6e6578697374656e7420746f6b656e0000000000000000000000000000000000602082015250565b7f77617272616e74792043617264207374696c6c2056616c696400000000000000600082015250565b7f4552433732313a20617070726f76616c20746f2063757272656e74206f776e6560008201527f7200000000000000000000000000000000000000000000000000000000000000602082015250565b7f4552433732313a207472616e736665722063616c6c6572206973206e6f74206f60008201527f776e6572206e6f7220617070726f766564000000000000000000000000000000602082015250565b7f416363657373436f6e74726f6c3a206163636f756e7420000000000000000000600082015250565b7f6164647265737320616c72656164792072656769737465726564000000000000600082015250565b7f206973206d697373696e6720726f6c6520000000000000000000000000000000600082015250565b7f416363657373436f6e74726f6c3a2063616e206f6e6c792072656e6f756e636560008201527f20726f6c657320666f722073656c660000000000000000000000000000000000602082015250565b6146ad81613da2565b81146146b857600080fd5b50565b6146c481613db4565b81146146cf57600080fd5b50565b6146db81613dc0565b81146146e657600080fd5b50565b6146f281613dca565b81146146fd57600080fd5b50565b61470981613e16565b811461471457600080fd5b5056fea264697066735822122024d5ff3e56cea86681ad6191adaf5ef03ae65b3970812e39e7d403f4d587dda064736f6c63430008030033",
  "linkReferences": {},
  "deployedLinkReferences": {}
}